{
  "contractName": "SampleContract",
  "abi": [
    {
      "inputs": [],
      "name": "value",
      "outputs": [
        {
          "internalType": "uint256",
          "name": "",
          "type": "uint256"
        }
      ],
      "stateMutability": "view",
      "type": "function",
      "constant": true
    },
    {
      "inputs": [
        {
          "internalType": "uint256",
          "name": "_value",
          "type": "uint256"
        }
      ],
      "name": "setValue",
      "outputs": [],
      "stateMutability": "nonpayable",
      "type": "function"
    },
    {
      "inputs": [],
      "name": "getValue",
      "outputs": [
        {
          "internalType": "uint256",
          "name": "",
          "type": "uint256"
        }
      ],
      "stateMutability": "view",
      "type": "function",
      "constant": true
    },
    {
      "inputs": [],
      "name": "multiValue",
      "outputs": [
        {
          "internalType": "uint256",
          "name": "",
          "type": "uint256"
        }
      ],
      "stateMutability": "view",
      "type": "function",
      "constant": true
    }
  ],
  "bytecode": "0x608060405234801561001057600080fd5b5061022f806100206000396000f3fe608060405234801561001057600080fd5b506004361061004c5760003560e01c806320965255146100515780633fa4f2451461006f578063552410771461008d578063fc9f6d98146100a9575b600080fd5b6100596100c7565b604051610066919061010f565b60405180910390f35b6100776100d0565b604051610084919061010f565b60405180910390f35b6100a760048036038101906100a2919061015b565b6100d6565b005b6100b16100e0565b6040516100be919061010f565b60405180910390f35b60008054905090565b60005481565b8060008190555050565b600060026000546100f191906101b7565b905090565b6000819050919050565b610109816100f6565b82525050565b60006020820190506101246000830184610100565b92915050565b600080fd5b610138816100f6565b811461014357600080fd5b50565b6000813590506101558161012f565b92915050565b6000602082840312156101715761017061012a565b5b600061017f84828501610146565b91505092915050565b7f4e487b7100000000000000000000000000000000000000000000000000000000600052601160045260246000fd5b60006101c2826100f6565b91506101cd836100f6565b92508282026101db816100f6565b915082820484148315176101f2576101f1610188565b5b509291505056fea2646970667358221220b83a8b727a094e088ac70aa987897e8c8066fd0059d65c218559773de7f2722c64736f6c63430008120033",
  "immutableReferences": {},
  "source": "// SPDX-License-Identifier: MIT\npragma solidity ^0.8.0;\n\ncontract SampleContract {\n    uint public value;\n\n    function setValue(uint _value) public {\n        value = _value;\n    }\n\n    function getValue() public view returns (uint) {\n        return value;\n    }\n\n    function multiValue() public view returns (uint) {\n        return value * 2;\n    }\n}\n",
  "sourcePath": "D:\\projects\\solidity\\metacrafts-solidity\\ETH-PROOF-INTERMEDIATE2\\m2-function-frontend\\contracts\\SampleContract.sol",
  "compiler": {
    "name": "solc",
    "version": "0.8.18+commit.87f61d96.Emscripten.clang"
  },
  "schemaVersion": "3.4.12",
  "updatedAt": "2023-03-03T13:17:02.832Z",
  "networkType": "ethereum",
  "devdoc": {
    "kind": "dev",
    "methods": {},
    "version": 1
  },
  "userdoc": {
    "kind": "user",
    "methods": {},
    "version": 1
  }
}