{
  "contractName": "EventContract",
  "abi": [
    {
      "anonymous": false,
      "inputs": [
        {
          "indexed": true,
          "internalType": "address",
          "name": "sender",
          "type": "address"
        },
        {
          "indexed": true,
          "internalType": "uint256",
          "name": "id",
          "type": "uint256"
        },
        {
          "indexed": false,
          "internalType": "string",
          "name": "data",
          "type": "string"
        }
      ],
      "name": "EventOne",
      "type": "event"
    },
    {
      "anonymous": false,
      "inputs": [
        {
          "indexed": true,
          "internalType": "address",
          "name": "sender",
          "type": "address"
        },
        {
          "indexed": false,
          "internalType": "uint256",
          "name": "amount",
          "type": "uint256"
        }
      ],
      "name": "EventThree",
      "type": "event"
    },
    {
      "anonymous": false,
      "inputs": [
        {
          "indexed": true,
          "internalType": "bytes32",
          "name": "hash",
          "type": "bytes32"
        },
        {
          "indexed": false,
          "internalType": "uint256",
          "name": "timestamp",
          "type": "uint256"
        }
      ],
      "name": "EventTwo",
      "type": "event"
    },
    {
      "inputs": [],
      "name": "triggerEvents",
      "outputs": [],
      "stateMutability": "nonpayable",
      "type": "function"
    }
  ],
  "bytecode": "0x608060405234801561001057600080fd5b50610278806100206000396000f3fe608060405234801561001057600080fd5b506004361061002b5760003560e01c8063c438a62414610030575b600080fd5b61003861003a565b005b60013373ffffffffffffffffffffffffffffffffffffffff167f1480599edb8e8972be18bec6408b3bc076c2b23b68a1af19847ceaa76810ed2a6040516100809061018e565b60405180910390a37f8cea857ed54b2a6d5f82794ace1ba18f7a5483e6e6fe290a4921bdca78912c997f38737fb2e26c2d4217ddf4430dd3d6002766be44c7b1b70d2a5f49f4e6bf4853426040516100d891906101c7565b60405180910390a23373ffffffffffffffffffffffffffffffffffffffff167fe129eb0dfa031914b1d7e43a62c430b43dcc3f09fef863e836db8501ee47304b60646040516101279190610227565b60405180910390a2565b600082825260208201905092915050565b7f4576656e74204f6e652044617461000000000000000000000000000000000000600082015250565b6000610178600e83610131565b915061018382610142565b602082019050919050565b600060208201905081810360008301526101a78161016b565b9050919050565b6000819050919050565b6101c1816101ae565b82525050565b60006020820190506101dc60008301846101b8565b92915050565b6000819050919050565b6000819050919050565b600061021161020c610207846101e2565b6101ec565b6101ae565b9050919050565b610221816101f6565b82525050565b600060208201905061023c6000830184610218565b9291505056fea26469706673582212203100dc2a8e3a944cd8eb4c38a2fb00e501b27908ed80c6e3412bdc5149486b0264736f6c63430008120033",
  "immutableReferences": {},
  "source": "// SPDX-License-Identifier: MIT\n\npragma solidity ^0.8.13;\n\ncontract EventContract {\n    // Define the events\n    event EventOne(address indexed sender, uint256 indexed id, string data);\n    event EventTwo(bytes32 indexed hash, uint256 timestamp);\n    event EventThree(address indexed sender, uint256 amount);\n\n    function triggerEvents() public {\n        // Trigger the events\n        emit EventOne(msg.sender, 1, \"Event One Data\");\n        emit EventTwo(keccak256(\"Event Two Hash\"), block.timestamp);\n        emit EventThree(msg.sender, 100);\n    }\n}",
  "sourcePath": "D:\\projects\\solidity\\metacrafts-solidity\\ETH-PROOF-INTERMEDIATE\\contracts\\EventContract.sol",
  "compiler": {
    "name": "solc",
    "version": "0.8.18+commit.87f61d96.Emscripten.clang"
  },
  "schemaVersion": "3.4.12",
  "updatedAt": "2023-02-23T14:05:52.765Z",
  "devdoc": {
    "kind": "dev",
    "methods": {},
    "version": 1
  },
  "userdoc": {
    "kind": "user",
    "methods": {},
    "version": 1
  }
}