{
  "contractName": "FunctionChallenge",
  "abi": [
    {
      "anonymous": false,
      "inputs": [
        {
          "indexed": true,
          "internalType": "address",
          "name": "_from",
          "type": "address"
        },
        {
          "indexed": false,
          "internalType": "uint256",
          "name": "_amount",
          "type": "uint256"
        }
      ],
      "name": "Paid",
      "type": "event"
    },
    {
      "inputs": [],
      "name": "someValue",
      "outputs": [
        {
          "internalType": "uint256",
          "name": "",
          "type": "uint256"
        }
      ],
      "stateMutability": "view",
      "type": "function"
    },
    {
      "inputs": [
        {
          "internalType": "uint256",
          "name": "_someValue",
          "type": "uint256"
        }
      ],
      "name": "setValue",
      "outputs": [],
      "stateMutability": "nonpayable",
      "type": "function"
    },
    {
      "inputs": [],
      "name": "getValue",
      "outputs": [
        {
          "internalType": "uint256",
          "name": "",
          "type": "uint256"
        }
      ],
      "stateMutability": "view",
      "type": "function"
    },
    {
      "inputs": [
        {
          "internalType": "uint256",
          "name": "_a",
          "type": "uint256"
        },
        {
          "internalType": "uint256",
          "name": "_b",
          "type": "uint256"
        }
      ],
      "name": "addNumbers",
      "outputs": [
        {
          "internalType": "uint256",
          "name": "",
          "type": "uint256"
        }
      ],
      "stateMutability": "pure",
      "type": "function"
    },
    {
      "inputs": [],
      "name": "payMe",
      "outputs": [],
      "stateMutability": "payable",
      "type": "function"
    }
  ],
  "bytecode": "0x608060405234801561001057600080fd5b506102ff806100206000396000f3fe60806040526004361061004a5760003560e01c8063209652551461004f5780634a627e611461007a57806355241077146100a5578063d997ccb3146100ce578063ef9fc50b146100d8575b600080fd5b34801561005b57600080fd5b50610064610115565b60405161007191906101ad565b60405180910390f35b34801561008657600080fd5b5061008f61011e565b60405161009c91906101ad565b60405180910390f35b3480156100b157600080fd5b506100cc60048036038101906100c791906101f9565b610124565b005b6100d661012e565b005b3480156100e457600080fd5b506100ff60048036038101906100fa9190610226565b61017e565b60405161010c91906101ad565b60405180910390f35b60008054905090565b60005481565b8060008190555050565b3373ffffffffffffffffffffffffffffffffffffffff167f737c69225d647e5994eab1a6c301bf6d9232beb2759ae1e27a8966b4732bc4893460405161017491906101ad565b60405180910390a2565b6000818361018c9190610295565b905092915050565b6000819050919050565b6101a781610194565b82525050565b60006020820190506101c2600083018461019e565b92915050565b600080fd5b6101d681610194565b81146101e157600080fd5b50565b6000813590506101f3816101cd565b92915050565b60006020828403121561020f5761020e6101c8565b5b600061021d848285016101e4565b91505092915050565b6000806040838503121561023d5761023c6101c8565b5b600061024b858286016101e4565b925050602061025c858286016101e4565b9150509250929050565b7f4e487b7100000000000000000000000000000000000000000000000000000000600052601160045260246000fd5b60006102a082610194565b91506102ab83610194565b92508282019050808211156102c3576102c2610266565b5b9291505056fea264697066735822122002f307e39077d2907341d3e9b356d48a108f646ad609f0569d48b37dffafa43a64736f6c63430008120033",
  "immutableReferences": {},
  "source": "pragma solidity >=0.7.0 <0.9.0; //solidity version\n\ncontract FunctionChallenge {\n    uint public someValue;\n\n    function setValue(uint _someValue) public {\n        someValue = _someValue;\n    }\n\n    function getValue() public view returns (uint) {\n        return someValue;\n    }\n\n    function addNumbers(uint _a, uint _b) public pure returns (uint) {\n        return _a + _b;\n    }\n\n    function payMe() public payable {\n        emit Paid(msg.sender, msg.value);\n    }\n\n    event Paid(address indexed _from, uint _amount);\n}",
  "sourcePath": "D:\\projects\\solidity\\metacrafts-solidity\\ETH-PROOF-INTERMEDIATE\\contracts\\FunctionChallenge.sol",
  "compiler": {
    "name": "solc",
    "version": "0.8.18+commit.87f61d96.Emscripten.clang"
  },
  "schemaVersion": "3.4.12",
  "updatedAt": "2023-02-23T14:05:52.771Z",
  "devdoc": {
    "kind": "dev",
    "methods": {},
    "version": 1
  },
  "userdoc": {
    "kind": "user",
    "methods": {},
    "version": 1
  }
}