{
  "contractName": "ModifierAdmin",
  "abi": [
    {
      "inputs": [],
      "stateMutability": "nonpayable",
      "type": "constructor"
    },
    {
      "inputs": [],
      "name": "admin",
      "outputs": [
        {
          "internalType": "address",
          "name": "",
          "type": "address"
        }
      ],
      "stateMutability": "view",
      "type": "function"
    },
    {
      "inputs": [
        {
          "internalType": "uint256",
          "name": "_a",
          "type": "uint256"
        },
        {
          "internalType": "uint256",
          "name": "_b",
          "type": "uint256"
        },
        {
          "internalType": "uint256",
          "name": "_c",
          "type": "uint256"
        },
        {
          "internalType": "uint256",
          "name": "_d",
          "type": "uint256"
        }
      ],
      "name": "set",
      "outputs": [],
      "stateMutability": "nonpayable",
      "type": "function"
    },
    {
      "inputs": [],
      "name": "get",
      "outputs": [
        {
          "internalType": "uint256",
          "name": "",
          "type": "uint256"
        }
      ],
      "stateMutability": "view",
      "type": "function"
    }
  ],
  "bytecode": "0x608060405234801561001057600080fd5b5033600460006101000a81548173ffffffffffffffffffffffffffffffffffffffff021916908373ffffffffffffffffffffffffffffffffffffffff1602179055506104ae806100616000396000f3fe608060405234801561001057600080fd5b50600436106100415760003560e01c8063606ce3bf146100465780636d4ce63c14610062578063f851a44014610080575b600080fd5b610060600480360381019061005b91906102e8565b61009e565b005b61006a610150565b604051610077919061035e565b60405180910390f35b610088610287565b60405161009591906103ba565b60405180910390f35b600460009054906101000a900473ffffffffffffffffffffffffffffffffffffffff1673ffffffffffffffffffffffffffffffffffffffff163373ffffffffffffffffffffffffffffffffffffffff161461012e576040517f08c379a000000000000000000000000000000000000000000000000000000000815260040161012590610458565b60405180910390fd5b8360008190555082600181905550816002819055508060038190555050505050565b6000600460009054906101000a900473ffffffffffffffffffffffffffffffffffffffff1673ffffffffffffffffffffffffffffffffffffffff163373ffffffffffffffffffffffffffffffffffffffff16146101e2576040517f08c379a00000000000000000000000000000000000000000000000000000000081526004016101d990610458565b60405180910390fd5b6001546000541180156101f85750600254600054115b80156102075750600354600054115b15610216576000549050610284565b60025460015411801561022c5750600354600154115b801561023b5750600054600154115b1561024a576001549050610284565b6003546002541180156102605750600054600254115b801561026f5750600154600254115b1561027e576002549050610284565b60035490505b90565b600460009054906101000a900473ffffffffffffffffffffffffffffffffffffffff1681565b600080fd5b6000819050919050565b6102c5816102b2565b81146102d057600080fd5b50565b6000813590506102e2816102bc565b92915050565b60008060008060808587031215610302576103016102ad565b5b6000610310878288016102d3565b9450506020610321878288016102d3565b9350506040610332878288016102d3565b9250506060610343878288016102d3565b91505092959194509250565b610358816102b2565b82525050565b6000602082019050610373600083018461034f565b92915050565b600073ffffffffffffffffffffffffffffffffffffffff82169050919050565b60006103a482610379565b9050919050565b6103b481610399565b82525050565b60006020820190506103cf60008301846103ab565b92915050565b600082825260208201905092915050565b7f4f6e6c792061646d696e2063616e2063616c6c20746869732066756e6374696f60008201527f6e00000000000000000000000000000000000000000000000000000000000000602082015250565b60006104426021836103d5565b915061044d826103e6565b604082019050919050565b6000602082019050818103600083015261047181610435565b905091905056fea26469706673582212204efde1343f9f138b71543e93495c03c1e450a3628c566739a5c7dccc1752161e64736f6c63430008120033",
  "immutableReferences": {},
  "source": "pragma solidity >=0.7.0 <0.9.0; //solidity version\n\ncontract ModifierAdmin {\n    uint a;\n    uint b;\n    uint c;\n    uint d;\n    address public admin;\n\n    constructor() {\n        admin = msg.sender;\n    }\n\n    modifier onlyAdmin() {\n        require(msg.sender == admin, \"Only admin can call this function\");\n        _;\n    }\n\n    function set (uint _a, uint _b, uint _c, uint _d) public onlyAdmin{\n        a = _a;\n        b = _b;\n        c = _c;\n        d = _d;\n    }\n\n    function get() public view onlyAdmin returns(uint){\n        if ((a > b) && (a > c) && (a > d)){\n        return(a);\n        }\n        else if ((b >c ) && (b > d) && (b > a)){\n            return(b);\n        }\n        else if ((c > d) && (c > a) && (c > b)){\n            return(c);\n        }\n        else {\n            return(d);\n        }\n    }\n}\n",
  "sourcePath": "D:\\projects\\solidity\\metacrafts-solidity\\ETH-PROOF-INTERMEDIATE\\contracts\\ModifierAdmin.sol",
  "compiler": {
    "name": "solc",
    "version": "0.8.18+commit.87f61d96.Emscripten.clang"
  },
  "schemaVersion": "3.4.12",
  "updatedAt": "2023-02-23T14:05:52.778Z",
  "devdoc": {
    "kind": "dev",
    "methods": {},
    "version": 1
  },
  "userdoc": {
    "kind": "user",
    "methods": {},
    "version": 1
  }
}